{
  "_format": "hh-sol-artifact-1",
  "contractName": "Lottery",
  "sourceName": "contracts/Lottery.sol",
  "abi": [
    {
      "inputs": [
        {
          "internalType": "uint256",
          "name": "_betPrice",
          "type": "uint256"
        },
        {
          "internalType": "uint256",
          "name": "_betFee",
          "type": "uint256"
        },
        {
          "internalType": "string",
          "name": "tokenName",
          "type": "string"
        },
        {
          "internalType": "string",
          "name": "tokenSymbol",
          "type": "string"
        }
      ],
      "stateMutability": "nonpayable",
      "type": "constructor"
    },
    {
      "anonymous": false,
      "inputs": [
        {
          "indexed": true,
          "internalType": "address",
          "name": "previousOwner",
          "type": "address"
        },
        {
          "indexed": true,
          "internalType": "address",
          "name": "newOwner",
          "type": "address"
        }
      ],
      "name": "OwnershipTransferred",
      "type": "event"
    },
    {
      "inputs": [],
      "name": "bet",
      "outputs": [],
      "stateMutability": "nonpayable",
      "type": "function"
    },
    {
      "inputs": [],
      "name": "betFee",
      "outputs": [
        {
          "internalType": "uint256",
          "name": "",
          "type": "uint256"
        }
      ],
      "stateMutability": "view",
      "type": "function"
    },
    {
      "inputs": [
        {
          "internalType": "uint256",
          "name": "times",
          "type": "uint256"
        }
      ],
      "name": "betMany",
      "outputs": [],
      "stateMutability": "nonpayable",
      "type": "function"
    },
    {
      "inputs": [],
      "name": "betPrice",
      "outputs": [
        {
          "internalType": "uint256",
          "name": "",
          "type": "uint256"
        }
      ],
      "stateMutability": "view",
      "type": "function"
    },
    {
      "inputs": [],
      "name": "betsOpen",
      "outputs": [
        {
          "internalType": "bool",
          "name": "",
          "type": "bool"
        }
      ],
      "stateMutability": "view",
      "type": "function"
    },
    {
      "inputs": [],
      "name": "closeLottery",
      "outputs": [],
      "stateMutability": "nonpayable",
      "type": "function"
    },
    {
      "inputs": [],
      "name": "closingTime",
      "outputs": [
        {
          "internalType": "uint256",
          "name": "",
          "type": "uint256"
        }
      ],
      "stateMutability": "view",
      "type": "function"
    },
    {
      "inputs": [],
      "name": "getRandomNumber",
      "outputs": [
        {
          "internalType": "uint256",
          "name": "randomNumber",
          "type": "uint256"
        }
      ],
      "stateMutability": "view",
      "type": "function"
    },
    {
      "inputs": [
        {
          "internalType": "uint256",
          "name": "_closingTime",
          "type": "uint256"
        }
      ],
      "name": "openBets",
      "outputs": [],
      "stateMutability": "nonpayable",
      "type": "function"
    },
    {
      "inputs": [],
      "name": "owner",
      "outputs": [
        {
          "internalType": "address",
          "name": "",
          "type": "address"
        }
      ],
      "stateMutability": "view",
      "type": "function"
    },
    {
      "inputs": [],
      "name": "ownerPool",
      "outputs": [
        {
          "internalType": "uint256",
          "name": "",
          "type": "uint256"
        }
      ],
      "stateMutability": "view",
      "type": "function"
    },
    {
      "inputs": [],
      "name": "paymentToken",
      "outputs": [
        {
          "internalType": "contract LotteryToken",
          "name": "",
          "type": "address"
        }
      ],
      "stateMutability": "view",
      "type": "function"
    },
    {
      "inputs": [
        {
          "internalType": "address",
          "name": "",
          "type": "address"
        }
      ],
      "name": "prize",
      "outputs": [
        {
          "internalType": "uint256",
          "name": "",
          "type": "uint256"
        }
      ],
      "stateMutability": "view",
      "type": "function"
    },
    {
      "inputs": [],
      "name": "prizePool",
      "outputs": [
        {
          "internalType": "uint256",
          "name": "",
          "type": "uint256"
        }
      ],
      "stateMutability": "view",
      "type": "function"
    },
    {
      "inputs": [],
      "name": "purchaseTokens",
      "outputs": [],
      "stateMutability": "payable",
      "type": "function"
    },
    {
      "inputs": [],
      "name": "renounceOwnership",
      "outputs": [],
      "stateMutability": "nonpayable",
      "type": "function"
    },
    {
      "inputs": [
        {
          "internalType": "address",
          "name": "newOwner",
          "type": "address"
        }
      ],
      "name": "transferOwnership",
      "outputs": [],
      "stateMutability": "nonpayable",
      "type": "function"
    }
  ],
  "bytecode": "0x60806040523480156200001157600080fd5b506040516200439a3803806200439a833981810160405281019062000037919062000392565b620000576200004b620000ea60201b60201c565b620000f260201b60201c565b81816040516200006790620001b6565b620000749291906200049f565b604051809103906000f08015801562000091573d6000803e3d6000fd5b50600160006101000a81548173ffffffffffffffffffffffffffffffffffffffff021916908373ffffffffffffffffffffffffffffffffffffffff160217905550836004819055508260058190555050505050620004da565b600033905090565b60008060009054906101000a900473ffffffffffffffffffffffffffffffffffffffff169050816000806101000a81548173ffffffffffffffffffffffffffffffffffffffff021916908373ffffffffffffffffffffffffffffffffffffffff1602179055508173ffffffffffffffffffffffffffffffffffffffff168173ffffffffffffffffffffffffffffffffffffffff167f8be0079c531659141344cd1fd0a4f28419497f9722a3daafe3b4186f6b6457e060405160405180910390a35050565b612c7b806200171f83390190565b6000604051905090565b600080fd5b600080fd5b6000819050919050565b620001ed81620001d8565b8114620001f957600080fd5b50565b6000815190506200020d81620001e2565b92915050565b600080fd5b600080fd5b6000601f19601f8301169050919050565b7f4e487b7100000000000000000000000000000000000000000000000000000000600052604160045260246000fd5b62000268826200021d565b810181811067ffffffffffffffff821117156200028a57620002896200022e565b5b80604052505050565b60006200029f620001c4565b9050620002ad82826200025d565b919050565b600067ffffffffffffffff821115620002d057620002cf6200022e565b5b620002db826200021d565b9050602081019050919050565b60005b8381101562000308578082015181840152602081019050620002eb565b60008484015250505050565b60006200032b6200032584620002b2565b62000293565b9050828152602081018484840111156200034a576200034962000218565b5b62000357848285620002e8565b509392505050565b600082601f83011262000377576200037662000213565b5b81516200038984826020860162000314565b91505092915050565b60008060008060808587031215620003af57620003ae620001ce565b5b6000620003bf87828801620001fc565b9450506020620003d287828801620001fc565b935050604085015167ffffffffffffffff811115620003f657620003f5620001d3565b5b62000404878288016200035f565b925050606085015167ffffffffffffffff811115620004285762000427620001d3565b5b62000436878288016200035f565b91505092959194509250565b600081519050919050565b600082825260208201905092915050565b60006200046b8262000442565b6200047781856200044d565b935062000489818560208601620002e8565b62000494816200021d565b840191505092915050565b60006040820190508181036000830152620004bb81856200045e565b90508181036020830152620004d181846200045e565b90509392505050565b61123580620004ea6000396000f3fe6080604052600436106100fe5760003560e01c8063729e91e911610095578063990a49f511610064578063990a49f5146102ba578063cfd8a175146102e3578063d1b258ff1461030e578063dbdff2c114610339578063f2fde38b14610364576100fe565b8063729e91e9146101fe578063841e6ce9146102275780638adf9c1f146102525780638da5cb5b1461028f576100fe565b80634b6753bc116100d15780634b6753bc1461017a5780636fd09816146101a5578063715018a6146101bc578063719ce73e146101d3576100fe565b806311610c25146101035780632b65e0401461011a5780633013ce29146101455780633290ce2914610170575b600080fd5b34801561010f57600080fd5b5061011861038d565b005b34801561012657600080fd5b5061012f610536565b60405161013c9190610b22565b60405180910390f35b34801561015157600080fd5b5061015a61053c565b6040516101679190610bbc565b60405180910390f35b610178610562565b005b34801561018657600080fd5b5061018f6105f3565b60405161019c9190610b22565b60405180910390f35b3480156101b157600080fd5b506101ba6105f9565b005b3480156101c857600080fd5b506101d1610788565b005b3480156101df57600080fd5b506101e861079c565b6040516101f59190610b22565b60405180910390f35b34801561020a57600080fd5b5061022560048036038101906102209190610c08565b6107a2565b005b34801561023357600080fd5b5061023c6107d7565b6040516102499190610b22565b60405180910390f35b34801561025e57600080fd5b5061027960048036038101906102749190610c73565b6107dd565b6040516102869190610b22565b60405180910390f35b34801561029b57600080fd5b506102a46107f5565b6040516102b19190610caf565b60405180910390f35b3480156102c657600080fd5b506102e160048036038101906102dc9190610c08565b61081e565b005b3480156102ef57600080fd5b506102f86108dd565b6040516103059190610b22565b60405180910390f35b34801561031a57600080fd5b506103236108e3565b6040516103309190610ce5565b60405180910390f35b34801561034557600080fd5b5061034e6108f6565b60405161035b9190610b22565b60405180910390f35b34801561037057600080fd5b5061038b60048036038101906103869190610c73565b6108fe565b005b600360009054906101000a900460ff1680156103aa575060025442105b6103e9576040517f08c379a00000000000000000000000000000000000000000000000000000000081526004016103e090610d5d565b60405180910390fd5b600554600760008282546103fd9190610dac565b92505081905550600454600660008282546104189190610dac565b925050819055506009339080600181540180825580915050600190039060005260206000200160009091909190916101000a81548173ffffffffffffffffffffffffffffffffffffffff021916908373ffffffffffffffffffffffffffffffffffffffff160217905550600160009054906101000a900473ffffffffffffffffffffffffffffffffffffffff1673ffffffffffffffffffffffffffffffffffffffff166323b872dd33306005546004546104d29190610dac565b6040518463ffffffff1660e01b81526004016104f093929190610de0565b6020604051808303816000875af115801561050f573d6000803e3d6000fd5b505050506040513d601f19601f820116820180604052508101906105339190610e43565b50565b60075481565b600160009054906101000a900473ffffffffffffffffffffffffffffffffffffffff1681565b600160009054906101000a900473ffffffffffffffffffffffffffffffffffffffff1673ffffffffffffffffffffffffffffffffffffffff166340c10f1933346040518363ffffffff1660e01b81526004016105bf929190610e70565b600060405180830381600087803b1580156105d957600080fd5b505af11580156105ed573d6000803e3d6000fd5b50505050565b60025481565b60025442101561063e576040517f08c379a000000000000000000000000000000000000000000000000000000000815260040161063590610ee5565b60405180910390fd5b600360009054906101000a900460ff1661068d576040517f08c379a000000000000000000000000000000000000000000000000000000000815260040161068490610f51565b60405180910390fd5b6000600980549050111561076b5760006009805490506106ab6108f6565b6106b59190610fa0565b90506000600982815481106106cd576106cc610fd1565b5b9060005260206000200160009054906101000a900473ffffffffffffffffffffffffffffffffffffffff169050600654600860008373ffffffffffffffffffffffffffffffffffffffff1673ffffffffffffffffffffffffffffffffffffffff168152602001908152602001600020600082825461074b9190610dac565b925050819055506000600681905550600960006107689190610acb565b50505b6000600360006101000a81548160ff021916908315150217905550565b610790610981565b61079a60006109ff565b565b60065481565b600081116107af57600080fd5b5b60008111156107d4576107c161038d565b80806107cc90611000565b9150506107b0565b50565b60055481565b60086020528060005260406000206000915090505481565b60008060009054906101000a900473ffffffffffffffffffffffffffffffffffffffff16905090565b610826610981565b600360009054906101000a900460ff1615610876576040517f08c379a000000000000000000000000000000000000000000000000000000000815260040161086d90611075565b60405180910390fd5b4281116108b8576040517f08c379a00000000000000000000000000000000000000000000000000000000081526004016108af906110e1565b60405180910390fd5b806002819055506001600360006101000a81548160ff02191690831515021790555050565b60045481565b600360009054906101000a900460ff1681565b600044905090565b610906610981565b600073ffffffffffffffffffffffffffffffffffffffff168173ffffffffffffffffffffffffffffffffffffffff1603610975576040517f08c379a000000000000000000000000000000000000000000000000000000000815260040161096c90611173565b60405180910390fd5b61097e816109ff565b50565b610989610ac3565b73ffffffffffffffffffffffffffffffffffffffff166109a76107f5565b73ffffffffffffffffffffffffffffffffffffffff16146109fd576040517f08c379a00000000000000000000000000000000000000000000000000000000081526004016109f4906111df565b60405180910390fd5b565b60008060009054906101000a900473ffffffffffffffffffffffffffffffffffffffff169050816000806101000a81548173ffffffffffffffffffffffffffffffffffffffff021916908373ffffffffffffffffffffffffffffffffffffffff1602179055508173ffffffffffffffffffffffffffffffffffffffff168173ffffffffffffffffffffffffffffffffffffffff167f8be0079c531659141344cd1fd0a4f28419497f9722a3daafe3b4186f6b6457e060405160405180910390a35050565b600033905090565b5080546000825590600052602060002090810190610ae99190610aec565b50565b5b80821115610b05576000816000905550600101610aed565b5090565b6000819050919050565b610b1c81610b09565b82525050565b6000602082019050610b376000830184610b13565b92915050565b600073ffffffffffffffffffffffffffffffffffffffff82169050919050565b6000819050919050565b6000610b82610b7d610b7884610b3d565b610b5d565b610b3d565b9050919050565b6000610b9482610b67565b9050919050565b6000610ba682610b89565b9050919050565b610bb681610b9b565b82525050565b6000602082019050610bd16000830184610bad565b92915050565b600080fd5b610be581610b09565b8114610bf057600080fd5b50565b600081359050610c0281610bdc565b92915050565b600060208284031215610c1e57610c1d610bd7565b5b6000610c2c84828501610bf3565b91505092915050565b6000610c4082610b3d565b9050919050565b610c5081610c35565b8114610c5b57600080fd5b50565b600081359050610c6d81610c47565b92915050565b600060208284031215610c8957610c88610bd7565b5b6000610c9784828501610c5e565b91505092915050565b610ca981610c35565b82525050565b6000602082019050610cc46000830184610ca0565b92915050565b60008115159050919050565b610cdf81610cca565b82525050565b6000602082019050610cfa6000830184610cd6565b92915050565b600082825260208201905092915050565b7f4c6f74746572793a20426574732061726520636c6f7365640000000000000000600082015250565b6000610d47601883610d00565b9150610d5282610d11565b602082019050919050565b60006020820190508181036000830152610d7681610d3a565b9050919050565b7f4e487b7100000000000000000000000000000000000000000000000000000000600052601160045260246000fd5b6000610db782610b09565b9150610dc283610b09565b9250828201905080821115610dda57610dd9610d7d565b5b92915050565b6000606082019050610df56000830186610ca0565b610e026020830185610ca0565b610e0f6040830184610b13565b949350505050565b610e2081610cca565b8114610e2b57600080fd5b50565b600081519050610e3d81610e17565b92915050565b600060208284031215610e5957610e58610bd7565b5b6000610e6784828501610e2e565b91505092915050565b6000604082019050610e856000830185610ca0565b610e926020830184610b13565b9392505050565b7f4c6f74746572793a20546f6f20736f6f6e20746f20636c6f7365000000000000600082015250565b6000610ecf601a83610d00565b9150610eda82610e99565b602082019050919050565b60006020820190508181036000830152610efe81610ec2565b9050919050565b7f4c6f74746572793a20416c726561647920636c6f736564000000000000000000600082015250565b6000610f3b601783610d00565b9150610f4682610f05565b602082019050919050565b60006020820190508181036000830152610f6a81610f2e565b9050919050565b7f4e487b7100000000000000000000000000000000000000000000000000000000600052601260045260246000fd5b6000610fab82610b09565b9150610fb683610b09565b925082610fc657610fc5610f71565b5b828206905092915050565b7f4e487b7100000000000000000000000000000000000000000000000000000000600052603260045260246000fd5b600061100b82610b09565b91506000820361101e5761101d610d7d565b5b600182039050919050565b7f4c6f74746572793a204265747320617265206e6f7420636c6f73656400000000600082015250565b600061105f601c83610d00565b915061106a82611029565b602082019050919050565b6000602082019050818103600083015261108e81611052565b9050919050565b7f636c6f73696e672074696d65206d75737420626520696e206675747572650000600082015250565b60006110cb601e83610d00565b91506110d682611095565b602082019050919050565b600060208201905081810360008301526110fa816110be565b9050919050565b7f4f776e61626c653a206e6577206f776e657220697320746865207a65726f206160008201527f6464726573730000000000000000000000000000000000000000000000000000602082015250565b600061115d602683610d00565b915061116882611101565b604082019050919050565b6000602082019050818103600083015261118c81611150565b9050919050565b7f4f776e61626c653a2063616c6c6572206973206e6f7420746865206f776e6572600082015250565b60006111c9602083610d00565b91506111d482611193565b602082019050919050565b600060208201905081810360008301526111f8816111bc565b905091905056fea26469706673582212200c9f25a8d6d03e4279a9c889e10e4965036c3c70c8d0c421410af077d258ea8464736f6c6343000811003360806040523480156200001157600080fd5b5060405162002c7b38038062002c7b8339818101604052810190620000379190620003a6565b818181600390816200004a919062000676565b5080600490816200005c919062000676565b505050620000746000801b33620000ae60201b60201c565b620000a67f9f2df0fed2c77648de5860a4cc508cd0818c85b8b8a1ab4ceeef8d981c8956a633620000ae60201b60201c565b50506200075d565b620000c08282620001a060201b60201c565b6200019c5760016005600084815260200190815260200160002060000160008373ffffffffffffffffffffffffffffffffffffffff1673ffffffffffffffffffffffffffffffffffffffff16815260200190815260200160002060006101000a81548160ff021916908315150217905550620001416200020b60201b60201c565b73ffffffffffffffffffffffffffffffffffffffff168173ffffffffffffffffffffffffffffffffffffffff16837f2f8788117e7eff1d82e926ec794901d17c78024a50270940304540a733656f0d60405160405180910390a45b5050565b60006005600084815260200190815260200160002060000160008373ffffffffffffffffffffffffffffffffffffffff1673ffffffffffffffffffffffffffffffffffffffff16815260200190815260200160002060009054906101000a900460ff16905092915050565b600033905090565b6000604051905090565b600080fd5b600080fd5b600080fd5b600080fd5b6000601f19601f8301169050919050565b7f4e487b7100000000000000000000000000000000000000000000000000000000600052604160045260246000fd5b6200027c8262000231565b810181811067ffffffffffffffff821117156200029e576200029d62000242565b5b80604052505050565b6000620002b362000213565b9050620002c1828262000271565b919050565b600067ffffffffffffffff821115620002e457620002e362000242565b5b620002ef8262000231565b9050602081019050919050565b60005b838110156200031c578082015181840152602081019050620002ff565b60008484015250505050565b60006200033f6200033984620002c6565b620002a7565b9050828152602081018484840111156200035e576200035d6200022c565b5b6200036b848285620002fc565b509392505050565b600082601f8301126200038b576200038a62000227565b5b81516200039d84826020860162000328565b91505092915050565b60008060408385031215620003c057620003bf6200021d565b5b600083015167ffffffffffffffff811115620003e157620003e062000222565b5b620003ef8582860162000373565b925050602083015167ffffffffffffffff81111562000413576200041262000222565b5b620004218582860162000373565b9150509250929050565b600081519050919050565b7f4e487b7100000000000000000000000000000000000000000000000000000000600052602260045260246000fd5b600060028204905060018216806200047e57607f821691505b60208210810362000494576200049362000436565b5b50919050565b60008190508160005260206000209050919050565b60006020601f8301049050919050565b600082821b905092915050565b600060088302620004fe7fffffffffffffffffffffffffffffffffffffffffffffffffffffffffffffffff82620004bf565b6200050a8683620004bf565b95508019841693508086168417925050509392505050565b6000819050919050565b6000819050919050565b600062000557620005516200054b8462000522565b6200052c565b62000522565b9050919050565b6000819050919050565b620005738362000536565b6200058b62000582826200055e565b848454620004cc565b825550505050565b600090565b620005a262000593565b620005af81848462000568565b505050565b5b81811015620005d757620005cb60008262000598565b600181019050620005b5565b5050565b601f8211156200062657620005f0816200049a565b620005fb84620004af565b810160208510156200060b578190505b620006236200061a85620004af565b830182620005b4565b50505b505050565b600082821c905092915050565b60006200064b600019846008026200062b565b1980831691505092915050565b600062000666838362000638565b9150826002028217905092915050565b62000681826200042b565b67ffffffffffffffff8111156200069d576200069c62000242565b5b620006a9825462000465565b620006b6828285620005db565b600060209050601f831160018114620006ee5760008415620006d9578287015190505b620006e5858262000658565b86555062000755565b601f198416620006fe866200049a565b60005b82811015620007285784890151825560018201915060208501945060208101905062000701565b8683101562000748578489015162000744601f89168262000638565b8355505b6001600288020188555050505b505050505050565b61250e806200076d6000396000f3fe608060405234801561001057600080fd5b50600436106101425760003560e01c806342966c68116100b8578063a217fddf1161007c578063a217fddf1461039b578063a457c2d7146103b9578063a9059cbb146103e9578063d539139314610419578063d547741f14610437578063dd62ed3e1461045357610142565b806342966c68146102e557806370a082311461030157806379cc67901461033157806391d148541461034d57806395d89b411461037d57610142565b8063248a9ca31161010a578063248a9ca3146102135780632f2ff15d14610243578063313ce5671461025f57806336568abe1461027d578063395093511461029957806340c10f19146102c957610142565b806301ffc9a71461014757806306fdde0314610177578063095ea7b31461019557806318160ddd146101c557806323b872dd146101e3575b600080fd5b610161600480360381019061015c91906117a0565b610483565b60405161016e91906117e8565b60405180910390f35b61017f6104fd565b60405161018c9190611893565b60405180910390f35b6101af60048036038101906101aa9190611949565b61058f565b6040516101bc91906117e8565b60405180910390f35b6101cd6105b2565b6040516101da9190611998565b60405180910390f35b6101fd60048036038101906101f891906119b3565b6105bc565b60405161020a91906117e8565b60405180910390f35b61022d60048036038101906102289190611a3c565b6105eb565b60405161023a9190611a78565b60405180910390f35b61025d60048036038101906102589190611a93565b61060b565b005b61026761062c565b6040516102749190611aef565b60405180910390f35b61029760048036038101906102929190611a93565b610635565b005b6102b360048036038101906102ae9190611949565b6106b8565b6040516102c091906117e8565b60405180910390f35b6102e360048036038101906102de9190611949565b6106ef565b005b6102ff60048036038101906102fa9190611b0a565b610728565b005b61031b60048036038101906103169190611b37565b61073c565b6040516103289190611998565b60405180910390f35b61034b60048036038101906103469190611949565b610784565b005b61036760048036038101906103629190611a93565b6107a4565b60405161037491906117e8565b60405180910390f35b61038561080f565b6040516103929190611893565b60405180910390f35b6103a36108a1565b6040516103b09190611a78565b60405180910390f35b6103d360048036038101906103ce9190611949565b6108a8565b6040516103e091906117e8565b60405180910390f35b61040360048036038101906103fe9190611949565b61091f565b60405161041091906117e8565b60405180910390f35b610421610942565b60405161042e9190611a78565b60405180910390f35b610451600480360381019061044c9190611a93565b610966565b005b61046d60048036038101906104689190611b64565b610987565b60405161047a9190611998565b60405180910390f35b60007f7965db0b000000000000000000000000000000000000000000000000000000007bffffffffffffffffffffffffffffffffffffffffffffffffffffffff1916827bffffffffffffffffffffffffffffffffffffffffffffffffffffffff191614806104f657506104f582610a0e565b5b9050919050565b60606003805461050c90611bd3565b80601f016020809104026020016040519081016040528092919081815260200182805461053890611bd3565b80156105855780601f1061055a57610100808354040283529160200191610585565b820191906000526020600020905b81548152906001019060200180831161056857829003601f168201915b5050505050905090565b60008061059a610a78565b90506105a7818585610a80565b600191505092915050565b6000600254905090565b6000806105c7610a78565b90506105d4858285610c49565b6105df858585610cd5565b60019150509392505050565b600060056000838152602001908152602001600020600101549050919050565b610614826105eb565b61061d81610f54565b6106278383610f68565b505050565b60006012905090565b61063d610a78565b73ffffffffffffffffffffffffffffffffffffffff168173ffffffffffffffffffffffffffffffffffffffff16146106aa576040517f08c379a00000000000000000000000000000000000000000000000000000000081526004016106a190611c76565b60405180910390fd5b6106b48282611049565b5050565b6000806106c3610a78565b90506106e48185856106d58589610987565b6106df9190611cc5565b610a80565b600191505092915050565b7f9f2df0fed2c77648de5860a4cc508cd0818c85b8b8a1ab4ceeef8d981c8956a661071981610f54565b610723838361112b565b505050565b610739610733610a78565b8261128a565b50565b60008060008373ffffffffffffffffffffffffffffffffffffffff1673ffffffffffffffffffffffffffffffffffffffff168152602001908152602001600020549050919050565b61079682610790610a78565b83610c49565b6107a0828261128a565b5050565b60006005600084815260200190815260200160002060000160008373ffffffffffffffffffffffffffffffffffffffff1673ffffffffffffffffffffffffffffffffffffffff16815260200190815260200160002060009054906101000a900460ff16905092915050565b60606004805461081e90611bd3565b80601f016020809104026020016040519081016040528092919081815260200182805461084a90611bd3565b80156108975780601f1061086c57610100808354040283529160200191610897565b820191906000526020600020905b81548152906001019060200180831161087a57829003601f168201915b5050505050905090565b6000801b81565b6000806108b3610a78565b905060006108c18286610987565b905083811015610906576040517f08c379a00000000000000000000000000000000000000000000000000000000081526004016108fd90611d6b565b60405180910390fd5b6109138286868403610a80565b60019250505092915050565b60008061092a610a78565b9050610937818585610cd5565b600191505092915050565b7f9f2df0fed2c77648de5860a4cc508cd0818c85b8b8a1ab4ceeef8d981c8956a681565b61096f826105eb565b61097881610f54565b6109828383611049565b505050565b6000600160008473ffffffffffffffffffffffffffffffffffffffff1673ffffffffffffffffffffffffffffffffffffffff16815260200190815260200160002060008373ffffffffffffffffffffffffffffffffffffffff1673ffffffffffffffffffffffffffffffffffffffff16815260200190815260200160002054905092915050565b60007f01ffc9a7000000000000000000000000000000000000000000000000000000007bffffffffffffffffffffffffffffffffffffffffffffffffffffffff1916827bffffffffffffffffffffffffffffffffffffffffffffffffffffffff1916149050919050565b600033905090565b600073ffffffffffffffffffffffffffffffffffffffff168373ffffffffffffffffffffffffffffffffffffffff1603610aef576040517f08c379a0000000000000000000000000000000000000000000000000000000008152600401610ae690611dfd565b60405180910390fd5b600073ffffffffffffffffffffffffffffffffffffffff168273ffffffffffffffffffffffffffffffffffffffff1603610b5e576040517f08c379a0000000000000000000000000000000000000000000000000000000008152600401610b5590611e8f565b60405180910390fd5b80600160008573ffffffffffffffffffffffffffffffffffffffff1673ffffffffffffffffffffffffffffffffffffffff16815260200190815260200160002060008473ffffffffffffffffffffffffffffffffffffffff1673ffffffffffffffffffffffffffffffffffffffff168152602001908152602001600020819055508173ffffffffffffffffffffffffffffffffffffffff168373ffffffffffffffffffffffffffffffffffffffff167f8c5be1e5ebec7d5bd14f71427d1e84f3dd0314c0f7b2291e5b200ac8c7c3b92583604051610c3c9190611998565b60405180910390a3505050565b6000610c558484610987565b90507fffffffffffffffffffffffffffffffffffffffffffffffffffffffffffffffff8114610ccf5781811015610cc1576040517f08c379a0000000000000000000000000000000000000000000000000000000008152600401610cb890611efb565b60405180910390fd5b610cce8484848403610a80565b5b50505050565b600073ffffffffffffffffffffffffffffffffffffffff168373ffffffffffffffffffffffffffffffffffffffff1603610d44576040517f08c379a0000000000000000000000000000000000000000000000000000000008152600401610d3b90611f8d565b60405180910390fd5b600073ffffffffffffffffffffffffffffffffffffffff168273ffffffffffffffffffffffffffffffffffffffff1603610db3576040517f08c379a0000000000000000000000000000000000000000000000000000000008152600401610daa9061201f565b60405180910390fd5b610dbe838383611460565b60008060008573ffffffffffffffffffffffffffffffffffffffff1673ffffffffffffffffffffffffffffffffffffffff16815260200190815260200160002054905081811015610e44576040517f08c379a0000000000000000000000000000000000000000000000000000000008152600401610e3b906120b1565b60405180910390fd5b8181036000808673ffffffffffffffffffffffffffffffffffffffff1673ffffffffffffffffffffffffffffffffffffffff16815260200190815260200160002081905550816000808573ffffffffffffffffffffffffffffffffffffffff1673ffffffffffffffffffffffffffffffffffffffff1681526020019081526020016000206000828254610ed79190611cc5565b925050819055508273ffffffffffffffffffffffffffffffffffffffff168473ffffffffffffffffffffffffffffffffffffffff167fddf252ad1be2c89b69c2b068fc378daa952ba7f163c4a11628f55a4df523b3ef84604051610f3b9190611998565b60405180910390a3610f4e848484611465565b50505050565b610f6581610f60610a78565b61146a565b50565b610f7282826107a4565b6110455760016005600084815260200190815260200160002060000160008373ffffffffffffffffffffffffffffffffffffffff1673ffffffffffffffffffffffffffffffffffffffff16815260200190815260200160002060006101000a81548160ff021916908315150217905550610fea610a78565b73ffffffffffffffffffffffffffffffffffffffff168173ffffffffffffffffffffffffffffffffffffffff16837f2f8788117e7eff1d82e926ec794901d17c78024a50270940304540a733656f0d60405160405180910390a45b5050565b61105382826107a4565b156111275760006005600084815260200190815260200160002060000160008373ffffffffffffffffffffffffffffffffffffffff1673ffffffffffffffffffffffffffffffffffffffff16815260200190815260200160002060006101000a81548160ff0219169083151502179055506110cc610a78565b73ffffffffffffffffffffffffffffffffffffffff168173ffffffffffffffffffffffffffffffffffffffff16837ff6391f5c32d9c69d2a47ea670b442974b53935d1edc7fd64eb21e047a839171b60405160405180910390a45b5050565b600073ffffffffffffffffffffffffffffffffffffffff168273ffffffffffffffffffffffffffffffffffffffff160361119a576040517f08c379a00000000000000000000000000000000000000000000000000000000081526004016111919061211d565b60405180910390fd5b6111a660008383611460565b80600260008282546111b89190611cc5565b92505081905550806000808473ffffffffffffffffffffffffffffffffffffffff1673ffffffffffffffffffffffffffffffffffffffff168152602001908152602001600020600082825461120d9190611cc5565b925050819055508173ffffffffffffffffffffffffffffffffffffffff16600073ffffffffffffffffffffffffffffffffffffffff167fddf252ad1be2c89b69c2b068fc378daa952ba7f163c4a11628f55a4df523b3ef836040516112729190611998565b60405180910390a361128660008383611465565b5050565b600073ffffffffffffffffffffffffffffffffffffffff168273ffffffffffffffffffffffffffffffffffffffff16036112f9576040517f08c379a00000000000000000000000000000000000000000000000000000000081526004016112f0906121af565b60405180910390fd5b61130582600083611460565b60008060008473ffffffffffffffffffffffffffffffffffffffff1673ffffffffffffffffffffffffffffffffffffffff1681526020019081526020016000205490508181101561138b576040517f08c379a000000000000000000000000000000000000000000000000000000000815260040161138290612241565b60405180910390fd5b8181036000808573ffffffffffffffffffffffffffffffffffffffff1673ffffffffffffffffffffffffffffffffffffffff1681526020019081526020016000208190555081600260008282546113e29190612261565b92505081905550600073ffffffffffffffffffffffffffffffffffffffff168373ffffffffffffffffffffffffffffffffffffffff167fddf252ad1be2c89b69c2b068fc378daa952ba7f163c4a11628f55a4df523b3ef846040516114479190611998565b60405180910390a361145b83600084611465565b505050565b505050565b505050565b61147482826107a4565b611503576114998173ffffffffffffffffffffffffffffffffffffffff166014611507565b6114a78360001c6020611507565b6040516020016114b8929190612369565b6040516020818303038152906040526040517f08c379a00000000000000000000000000000000000000000000000000000000081526004016114fa9190611893565b60405180910390fd5b5050565b60606000600283600261151a91906123a3565b6115249190611cc5565b67ffffffffffffffff81111561153d5761153c6123e5565b5b6040519080825280601f01601f19166020018201604052801561156f5781602001600182028036833780820191505090505b5090507f3000000000000000000000000000000000000000000000000000000000000000816000815181106115a7576115a6612414565b5b60200101907effffffffffffffffffffffffffffffffffffffffffffffffffffffffffffff1916908160001a9053507f78000000000000000000000000000000000000000000000000000000000000008160018151811061160b5761160a612414565b5b60200101907effffffffffffffffffffffffffffffffffffffffffffffffffffffffffffff1916908160001a9053506000600184600261164b91906123a3565b6116559190611cc5565b90505b60018111156116f5577f3031323334353637383961626364656600000000000000000000000000000000600f86166010811061169757611696612414565b5b1a60f81b8282815181106116ae576116ad612414565b5b60200101907effffffffffffffffffffffffffffffffffffffffffffffffffffffffffffff1916908160001a905350600485901c9450806116ee90612443565b9050611658565b5060008414611739576040517f08c379a0000000000000000000000000000000000000000000000000000000008152600401611730906124b8565b60405180910390fd5b8091505092915050565b600080fd5b60007fffffffff0000000000000000000000000000000000000000000000000000000082169050919050565b61177d81611748565b811461178857600080fd5b50565b60008135905061179a81611774565b92915050565b6000602082840312156117b6576117b5611743565b5b60006117c48482850161178b565b91505092915050565b60008115159050919050565b6117e2816117cd565b82525050565b60006020820190506117fd60008301846117d9565b92915050565b600081519050919050565b600082825260208201905092915050565b60005b8381101561183d578082015181840152602081019050611822565b60008484015250505050565b6000601f19601f8301169050919050565b600061186582611803565b61186f818561180e565b935061187f81856020860161181f565b61188881611849565b840191505092915050565b600060208201905081810360008301526118ad818461185a565b905092915050565b600073ffffffffffffffffffffffffffffffffffffffff82169050919050565b60006118e0826118b5565b9050919050565b6118f0816118d5565b81146118fb57600080fd5b50565b60008135905061190d816118e7565b92915050565b6000819050919050565b61192681611913565b811461193157600080fd5b50565b6000813590506119438161191d565b92915050565b600080604083850312156119605761195f611743565b5b600061196e858286016118fe565b925050602061197f85828601611934565b9150509250929050565b61199281611913565b82525050565b60006020820190506119ad6000830184611989565b92915050565b6000806000606084860312156119cc576119cb611743565b5b60006119da868287016118fe565b93505060206119eb868287016118fe565b92505060406119fc86828701611934565b9150509250925092565b6000819050919050565b611a1981611a06565b8114611a2457600080fd5b50565b600081359050611a3681611a10565b92915050565b600060208284031215611a5257611a51611743565b5b6000611a6084828501611a27565b91505092915050565b611a7281611a06565b82525050565b6000602082019050611a8d6000830184611a69565b92915050565b60008060408385031215611aaa57611aa9611743565b5b6000611ab885828601611a27565b9250506020611ac9858286016118fe565b9150509250929050565b600060ff82169050919050565b611ae981611ad3565b82525050565b6000602082019050611b046000830184611ae0565b92915050565b600060208284031215611b2057611b1f611743565b5b6000611b2e84828501611934565b91505092915050565b600060208284031215611b4d57611b4c611743565b5b6000611b5b848285016118fe565b91505092915050565b60008060408385031215611b7b57611b7a611743565b5b6000611b89858286016118fe565b9250506020611b9a858286016118fe565b9150509250929050565b7f4e487b7100000000000000000000000000000000000000000000000000000000600052602260045260246000fd5b60006002820490506001821680611beb57607f821691505b602082108103611bfe57611bfd611ba4565b5b50919050565b7f416363657373436f6e74726f6c3a2063616e206f6e6c792072656e6f756e636560008201527f20726f6c657320666f722073656c660000000000000000000000000000000000602082015250565b6000611c60602f8361180e565b9150611c6b82611c04565b604082019050919050565b60006020820190508181036000830152611c8f81611c53565b9050919050565b7f4e487b7100000000000000000000000000000000000000000000000000000000600052601160045260246000fd5b6000611cd082611913565b9150611cdb83611913565b9250828201905080821115611cf357611cf2611c96565b5b92915050565b7f45524332303a2064656372656173656420616c6c6f77616e63652062656c6f7760008201527f207a65726f000000000000000000000000000000000000000000000000000000602082015250565b6000611d5560258361180e565b9150611d6082611cf9565b604082019050919050565b60006020820190508181036000830152611d8481611d48565b9050919050565b7f45524332303a20617070726f76652066726f6d20746865207a65726f2061646460008201527f7265737300000000000000000000000000000000000000000000000000000000602082015250565b6000611de760248361180e565b9150611df282611d8b565b604082019050919050565b60006020820190508181036000830152611e1681611dda565b9050919050565b7f45524332303a20617070726f766520746f20746865207a65726f20616464726560008201527f7373000000000000000000000000000000000000000000000000000000000000602082015250565b6000611e7960228361180e565b9150611e8482611e1d565b604082019050919050565b60006020820190508181036000830152611ea881611e6c565b9050919050565b7f45524332303a20696e73756666696369656e7420616c6c6f77616e6365000000600082015250565b6000611ee5601d8361180e565b9150611ef082611eaf565b602082019050919050565b60006020820190508181036000830152611f1481611ed8565b9050919050565b7f45524332303a207472616e736665722066726f6d20746865207a65726f20616460008201527f6472657373000000000000000000000000000000000000000000000000000000602082015250565b6000611f7760258361180e565b9150611f8282611f1b565b604082019050919050565b60006020820190508181036000830152611fa681611f6a565b9050919050565b7f45524332303a207472616e7366657220746f20746865207a65726f206164647260008201527f6573730000000000000000000000000000000000000000000000000000000000602082015250565b600061200960238361180e565b915061201482611fad565b604082019050919050565b6000602082019050818103600083015261203881611ffc565b9050919050565b7f45524332303a207472616e7366657220616d6f756e742065786365656473206260008201527f616c616e63650000000000000000000000000000000000000000000000000000602082015250565b600061209b60268361180e565b91506120a68261203f565b604082019050919050565b600060208201905081810360008301526120ca8161208e565b9050919050565b7f45524332303a206d696e7420746f20746865207a65726f206164647265737300600082015250565b6000612107601f8361180e565b9150612112826120d1565b602082019050919050565b60006020820190508181036000830152612136816120fa565b9050919050565b7f45524332303a206275726e2066726f6d20746865207a65726f2061646472657360008201527f7300000000000000000000000000000000000000000000000000000000000000602082015250565b600061219960218361180e565b91506121a48261213d565b604082019050919050565b600060208201905081810360008301526121c88161218c565b9050919050565b7f45524332303a206275726e20616d6f756e7420657863656564732062616c616e60008201527f6365000000000000000000000000000000000000000000000000000000000000602082015250565b600061222b60228361180e565b9150612236826121cf565b604082019050919050565b6000602082019050818103600083015261225a8161221e565b9050919050565b600061226c82611913565b915061227783611913565b925082820390508181111561228f5761228e611c96565b5b92915050565b600081905092915050565b7f416363657373436f6e74726f6c3a206163636f756e7420000000000000000000600082015250565b60006122d6601783612295565b91506122e1826122a0565b601782019050919050565b60006122f782611803565b6123018185612295565b935061231181856020860161181f565b80840191505092915050565b7f206973206d697373696e6720726f6c6520000000000000000000000000000000600082015250565b6000612353601183612295565b915061235e8261231d565b601182019050919050565b6000612374826122c9565b915061238082856122ec565b915061238b82612346565b915061239782846122ec565b91508190509392505050565b60006123ae82611913565b91506123b983611913565b92508282026123c781611913565b915082820484148315176123de576123dd611c96565b5b5092915050565b7f4e487b7100000000000000000000000000000000000000000000000000000000600052604160045260246000fd5b7f4e487b7100000000000000000000000000000000000000000000000000000000600052603260045260246000fd5b600061244e82611913565b91506000820361246157612460611c96565b5b600182039050919050565b7f537472696e67733a20686578206c656e67746820696e73756666696369656e74600082015250565b60006124a260208361180e565b91506124ad8261246c565b602082019050919050565b600060208201905081810360008301526124d181612495565b905091905056fea2646970667358221220ae9e3cfb465c1562de08bd12e39c2d64501aaf180a4fc5a9e70f517764b2042f64736f6c63430008110033",
  "linkReferences": {},
  "deployedLinkReferences": {}
}